{
  "contractName": "LandManagement",
  "abi": [
    {
      "inputs": [],
      "stateMutability": "nonpayable",
      "type": "constructor"
    },
    {
      "anonymous": false,
      "inputs": [
        {
          "indexed": true,
          "internalType": "address",
          "name": "landId",
          "type": "address"
        },
        {
          "indexed": true,
          "internalType": "address",
          "name": "owner",
          "type": "address"
        }
      ],
      "name": "LandAdded",
      "type": "event"
    },
    {
      "anonymous": false,
      "inputs": [
        {
          "indexed": true,
          "internalType": "address",
          "name": "landId",
          "type": "address"
        },
        {
          "indexed": false,
          "internalType": "uint256",
          "name": "price",
          "type": "uint256"
        },
        {
          "indexed": false,
          "internalType": "address",
          "name": "owner",
          "type": "address"
        }
      ],
      "name": "LandForSale",
      "type": "event"
    },
    {
      "anonymous": false,
      "inputs": [
        {
          "indexed": true,
          "internalType": "address",
          "name": "landId",
          "type": "address"
        },
        {
          "indexed": false,
          "internalType": "uint256",
          "name": "price",
          "type": "uint256"
        },
        {
          "indexed": true,
          "internalType": "address",
          "name": "oldOwner",
          "type": "address"
        },
        {
          "indexed": true,
          "internalType": "address",
          "name": "newOwner",
          "type": "address"
        },
        {
          "indexed": false,
          "internalType": "uint256",
          "name": "timestamp",
          "type": "uint256"
        }
      ],
      "name": "LandSold",
      "type": "event"
    },
    {
      "inputs": [],
      "name": "admin",
      "outputs": [
        {
          "internalType": "address",
          "name": "",
          "type": "address"
        }
      ],
      "stateMutability": "view",
      "type": "function",
      "constant": true
    },
    {
      "inputs": [],
      "name": "landCount",
      "outputs": [
        {
          "internalType": "uint256",
          "name": "",
          "type": "uint256"
        }
      ],
      "stateMutability": "view",
      "type": "function",
      "constant": true
    },
    {
      "inputs": [
        {
          "internalType": "address",
          "name": "",
          "type": "address"
        },
        {
          "internalType": "uint256",
          "name": "",
          "type": "uint256"
        }
      ],
      "name": "landHistory",
      "outputs": [
        {
          "internalType": "address",
          "name": "owner",
          "type": "address"
        },
        {
          "internalType": "uint256",
          "name": "timestamp",
          "type": "uint256"
        }
      ],
      "stateMutability": "view",
      "type": "function",
      "constant": true
    },
    {
      "inputs": [
        {
          "internalType": "address",
          "name": "",
          "type": "address"
        }
      ],
      "name": "landHistoryCount",
      "outputs": [
        {
          "internalType": "uint256",
          "name": "",
          "type": "uint256"
        }
      ],
      "stateMutability": "view",
      "type": "function",
      "constant": true
    },
    {
      "inputs": [
        {
          "internalType": "address",
          "name": "",
          "type": "address"
        }
      ],
      "name": "lands",
      "outputs": [
        {
          "internalType": "string",
          "name": "photoHash",
          "type": "string"
        },
        {
          "internalType": "string",
          "name": "jsonHash",
          "type": "string"
        },
        {
          "internalType": "address",
          "name": "owner",
          "type": "address"
        },
        {
          "internalType": "uint256",
          "name": "price",
          "type": "uint256"
        },
        {
          "internalType": "bool",
          "name": "isForSale",
          "type": "bool"
        }
      ],
      "stateMutability": "view",
      "type": "function",
      "constant": true
    },
    {
      "inputs": [
        {
          "internalType": "uint256",
          "name": "",
          "type": "uint256"
        }
      ],
      "name": "landsArray",
      "outputs": [
        {
          "internalType": "address",
          "name": "",
          "type": "address"
        }
      ],
      "stateMutability": "view",
      "type": "function",
      "constant": true
    },
    {
      "inputs": [
        {
          "internalType": "address",
          "name": "",
          "type": "address"
        }
      ],
      "name": "ownerLandCount",
      "outputs": [
        {
          "internalType": "uint256",
          "name": "",
          "type": "uint256"
        }
      ],
      "stateMutability": "view",
      "type": "function",
      "constant": true
    },
    {
      "inputs": [],
      "name": "sellableLandCount",
      "outputs": [
        {
          "internalType": "uint256",
          "name": "",
          "type": "uint256"
        }
      ],
      "stateMutability": "view",
      "type": "function",
      "constant": true
    },
    {
      "inputs": [
        {
          "internalType": "string",
          "name": "_photoHash",
          "type": "string"
        },
        {
          "internalType": "string",
          "name": "_jsonHash",
          "type": "string"
        }
      ],
      "name": "addLand",
      "outputs": [
        {
          "internalType": "address",
          "name": "",
          "type": "address"
        }
      ],
      "stateMutability": "nonpayable",
      "type": "function"
    },
    {
      "inputs": [
        {
          "internalType": "address",
          "name": "owner",
          "type": "address"
        },
        {
          "internalType": "string",
          "name": "_photoHash",
          "type": "string"
        },
        {
          "internalType": "string",
          "name": "_jsonHash",
          "type": "string"
        }
      ],
      "name": "addLandForAccount",
      "outputs": [
        {
          "internalType": "address",
          "name": "",
          "type": "address"
        }
      ],
      "stateMutability": "nonpayable",
      "type": "function"
    },
    {
      "inputs": [
        {
          "internalType": "address",
          "name": "landId",
          "type": "address"
        },
        {
          "internalType": "address",
          "name": "newOwner",
          "type": "address"
        }
      ],
      "name": "transferLandOwnership",
      "outputs": [],
      "stateMutability": "nonpayable",
      "type": "function"
    },
    {
      "inputs": [
        {
          "internalType": "address",
          "name": "landId",
          "type": "address"
        },
        {
          "internalType": "uint256",
          "name": "price",
          "type": "uint256"
        }
      ],
      "name": "sellLand",
      "outputs": [],
      "stateMutability": "nonpayable",
      "type": "function"
    },
    {
      "inputs": [
        {
          "internalType": "address",
          "name": "landId",
          "type": "address"
        }
      ],
      "name": "buyLand",
      "outputs": [],
      "stateMutability": "payable",
      "type": "function",
      "payable": true
    },
    {
      "inputs": [
        {
          "internalType": "address",
          "name": "account",
          "type": "address"
        }
      ],
      "name": "getLandsIdByAccount",
      "outputs": [
        {
          "internalType": "address[]",
          "name": "",
          "type": "address[]"
        }
      ],
      "stateMutability": "view",
      "type": "function",
      "constant": true
    },
    {
      "inputs": [],
      "name": "getSellable",
      "outputs": [
        {
          "internalType": "address[]",
          "name": "",
          "type": "address[]"
        }
      ],
      "stateMutability": "view",
      "type": "function",
      "constant": true
    },
    {
      "inputs": [],
      "name": "getAllLands",
      "outputs": [
        {
          "internalType": "address[]",
          "name": "",
          "type": "address[]"
        }
      ],
      "stateMutability": "view",
      "type": "function",
      "constant": true
    }
  ],
  "bytecode": "0x608060405234801561001057600080fd5b50600780546001600160a01b0319163317905560006005556117e2806100376000396000f3fe6080604052600436106100f35760003560e01c8063a67efeae1161008a578063d7bce65811610059578063d7bce658146102d3578063ef658364146102e9578063f2a18ccd14610309578063f851a4401461032957600080fd5b8063a67efeae1461023c578063b35cfafc14610269578063b7b6e5431461027f578063bb436edb1461029457600080fd5b806359a5c744116100c657806359a5c744146101b1578063692112a3146101c45780637af774e3146101e4578063a0c816401461021c57600080fd5b80632578ebc8146100f85780632daa12661461012357806333b22760146101455780635906733114610176575b600080fd5b34801561010457600080fd5b5061010d610349565b60405161011a9190611662565b60405180910390f35b34801561012f57600080fd5b5061014361013e3660046114c7565b610466565b005b34801561015157600080fd5b506101656101603660046114a5565b61060e565b60405161011a9594939291906116af565b34801561018257600080fd5b506101a36101913660046114a5565b60046020526000908152604090205481565b60405190815260200161011a565b6101436101bf3660046114a5565b61075b565b3480156101d057600080fd5b5061010d6101df3660046114a5565b6109a7565b3480156101f057600080fd5b506102046101ff366004611598565b610ae7565b6040516001600160a01b03909116815260200161011a565b34801561022857600080fd5b5061014361023736600461156e565b610dca565b34801561024857600080fd5b506101a36102573660046114a5565b60036020526000908152604090205481565b34801561027557600080fd5b506101a360065481565b34801561028b57600080fd5b5061010d610f4f565b3480156102a057600080fd5b506102b46102af36600461156e565b611016565b604080516001600160a01b03909316835260208301919091520161011a565b3480156102df57600080fd5b506101a360055481565b3480156102f557600080fd5b506102046103043660046115fc565b61105c565b34801561031557600080fd5b506102046103243660046114fa565b611086565b34801561033557600080fd5b50600754610204906001600160a01b031681565b60065460609060008167ffffffffffffffff81111561036a5761036a611796565b604051908082528060200260200182016040528015610393578160200160208202803683370190505b50905060005b60055481101561045f57600080600183815481106103b9576103b9611780565b60009182526020808320909101546001600160a01b0316835282019290925260400190206004015460ff161561044d57600181815481106103fc576103fc611780565b9060005260206000200160009054906101000a90046001600160a01b031682828151811061042c5761042c611780565b60200260200101906001600160a01b031690816001600160a01b0316815250505b806104578161174f565b915050610399565b5092915050565b6001600160a01b038281166000908152602081905260409020600201541633146104fd5760405162461bcd60e51b815260206004820152602660248201527f596f75206d757374206f776e2074686973206c616e6420746f207472616e736660448201527f65722069742e000000000000000000000000000000000000000000000000000060648201526084015b60405180910390fd5b6001600160a01b0380831660009081526020818152604080832060020154909316825260039052908120805491610533836116fd565b90915550506001600160a01b0382811660009081526020818152604080832060020180546001600160a01b031916948616949094179093556004905290812080549161057e8361174f565b90915550506001600160a01b03811660009081526003602052604081208054916105a78361174f565b90915550506001600160a01b03918216600090815260026020818152604080842081518083019092529486168152428183019081528554600180820188559686529290942090519190920290910180546001600160a01b0319169190941617835551910155565b60006020819052908152604090208054819061062990611714565b80601f016020809104026020016040519081016040528092919081815260200182805461065590611714565b80156106a25780601f10610677576101008083540402835291602001916106a2565b820191906000526020600020905b81548152906001019060200180831161068557829003601f168201915b5050505050908060010180546106b790611714565b80601f01602080910402602001604051908101604052809291908181526020018280546106e390611714565b80156107305780601f1061070557610100808354040283529160200191610730565b820191906000526020600020905b81548152906001019060200180831161071357829003601f168201915b505050506002830154600384015460049094015492936001600160a01b039091169290915060ff1685565b6001600160a01b0381166000908152602081905260409020600481015460ff166107c75760405162461bcd60e51b815260206004820152601a60248201527f54686973206c616e64206973206e6f7420666f722073616c652e00000000000060448201526064016104f4565b806003015434101561081b5760405162461bcd60e51b815260206004820152601560248201527f496e73756666696369656e74207061796d656e742e000000000000000000000060448201526064016104f4565b60028101546001600160a01b03166000818152600360205260408120805491610843836116fd565b90915550506002820180546001600160a01b0319163390811790915560009081526003602052604081208054916108798361174f565b90915550506001600160a01b03838116600081815260026020818152604080842081518083018352338152428185019081528254600180820185559388528588209251960290910180546001600160a01b03191695909816949094178755925195909201949094556004868101805460ff191690559282529190925281208054916109038361174f565b909155505060068054906000610918836116fd565b90915550506040516001600160a01b038216903480156108fc02916000818181858888f19350505050158015610952573d6000803e3d6000fd5b5060038201546040805191825242602083015233916001600160a01b0384811692908716917fa3f5d4a27d4b403b6ab66d8e51ca66e5d73e45f3613df6a530a8cf7943e051d1910160405180910390a4505050565b6001600160a01b0381166000908152600360205260408120546060918167ffffffffffffffff8111156109dc576109dc611796565b604051908082528060200260200182016040528015610a05578160200160208202803683370190505b50905060005b600554811015610adf57846001600160a01b031660008060018481548110610a3557610a35611780565b60009182526020808320909101546001600160a01b039081168452908301939093526040909101902060020154161415610acd5760018181548110610a7c57610a7c611780565b9060005260206000200160009054906101000a90046001600160a01b0316828281518110610aac57610aac611780565b60200260200101906001600160a01b031690816001600160a01b0316815250505b80610ad78161174f565b915050610a0b565b509392505050565b6007546000906001600160a01b03163314610b535760405162461bcd60e51b815260206004820152602660248201527f4f6e6c792061646d696e2063616e20706572666f726d2074686973206f70657260448201526530ba34b7b71760d11b60648201526084016104f4565b6040516bffffffffffffffffffffffff193360601b16602082015242603482015260009060540160408051601f1981840301815291815281516020928301206001600160a01b0380821660009081529384905291909220600201549192501615610bff5760405162461bcd60e51b815260206004820152601960248201527f54686973206c616e6420616c7265616479206578697374732e0000000000000060448201526064016104f4565b6007546001600160a01b038281166000908152602081815260409091206002810180546001600160a01b0319169390941692831790935586519192610c48929091880190611363565b506001600160a01b0382166000908152602081815260409091208551610c7692600190920191870190611363565b506001600160a01b03828116600090815260208181526040808320600401805460ff19169055600280835281842082518084018452878716808252428287019081528354600181810186559489528789209351950290920180546001600160a01b031916949098169390931787555195019490945592825260039052908120805491610d018361174f565b9091555050600180548082019091557fb10e2d527612073b26eecdfd717e6a320cf44b4afac2b0732d9fcbe2b7fa0cf60180546001600160a01b0319166001600160a01b0384169081179091556000908152600460205260408120805491610d688361174f565b909155505060058054906000610d7d8361174f565b9190505550806001600160a01b0316826001600160a01b03167f3f405b948b7115df55f0e424c1b83969949e859b12290b021ca6004f117b09eb60405160405180910390a3509392505050565b6001600160a01b03828116600090815260208190526040902060020154163314610e5c5760405162461bcd60e51b815260206004820152602260248201527f596f75206d757374206f776e2074686973206c616e6420746f2073656c6c206960448201527f742e00000000000000000000000000000000000000000000000000000000000060648201526084016104f4565b6001600160a01b03821660009081526020819052604090206004015460ff1615610ec85760405162461bcd60e51b815260206004820152601e60248201527f54686973206c616e6420697320616c726561647920666f722073616c652e000060448201526064016104f4565b6001600160a01b038216600090815260208190526040812060038101839055600401805460ff191660011790556006805491610f038361174f565b9091555050604080518281523360208201526001600160a01b038416917f8cc58a23fcd3651fe691049335d54eb171157ca487b73b3ebad9b10bea5d1fe0910160405180910390a25050565b60055460609060008167ffffffffffffffff811115610f7057610f70611796565b604051908082528060200260200182016040528015610f99578160200160208202803683370190505b50905060005b60055481101561045f5760018181548110610fbc57610fbc611780565b9060005260206000200160009054906101000a90046001600160a01b0316828281518110610fec57610fec611780565b6001600160a01b03909216602092830291909101909101528061100e8161174f565b915050610f9f565b6002602052816000526040600020818154811061103257600080fd5b6000918252602090912060029091020180546001909101546001600160a01b039091169250905082565b6001818154811061106c57600080fd5b6000918252602090912001546001600160a01b0316905081565b6007546000906001600160a01b031633146110f25760405162461bcd60e51b815260206004820152602660248201527f4f6e6c792061646d696e2063616e20706572666f726d2074686973206f70657260448201526530ba34b7b71760d11b60648201526084016104f4565b6040516bffffffffffffffffffffffff193360601b16602082015242603482015260009060540160408051601f1981840301815291815281516020928301206001600160a01b038082166000908152938490529190922060020154919250161561119e5760405162461bcd60e51b815260206004820152601960248201527f54686973206c616e6420616c7265616479206578697374732e0000000000000060448201526064016104f4565b6001600160a01b038181166000908152602081815260409091206002810180546001600160a01b0319169389169390931790925585516111e19291870190611363565b506001600160a01b038116600090815260208181526040909120845161120f92600190920191860190611363565b506001600160a01b03818116600090815260208181526040808320600401805460ff191690556002808352818420825180840184528b8716808252428287019081528354600181810186559489528789209351950290920180546001600160a01b03191694909816939093178755519501949094559282526003905290812080549161129a8361174f565b9091555050600180548082019091557fb10e2d527612073b26eecdfd717e6a320cf44b4afac2b0732d9fcbe2b7fa0cf60180546001600160a01b0319166001600160a01b03831690811790915560009081526004602052604081208054916113018361174f565b9091555050600580549060006113168361174f565b9190505550846001600160a01b0316816001600160a01b03167f3f405b948b7115df55f0e424c1b83969949e859b12290b021ca6004f117b09eb60405160405180910390a3949350505050565b82805461136f90611714565b90600052602060002090601f01602090048101928261139157600085556113d7565b82601f106113aa57805160ff19168380011785556113d7565b828001600101855582156113d7579182015b828111156113d75782518255916020019190600101906113bc565b506113e39291506113e7565b5090565b5b808211156113e357600081556001016113e8565b80356001600160a01b038116811461141357600080fd5b919050565b600082601f83011261142957600080fd5b813567ffffffffffffffff8082111561144457611444611796565b604051601f8301601f19908116603f0116810190828211818310171561146c5761146c611796565b8160405283815286602085880101111561148557600080fd5b836020870160208301376000602085830101528094505050505092915050565b6000602082840312156114b757600080fd5b6114c0826113fc565b9392505050565b600080604083850312156114da57600080fd5b6114e3836113fc565b91506114f1602084016113fc565b90509250929050565b60008060006060848603121561150f57600080fd5b611518846113fc565b9250602084013567ffffffffffffffff8082111561153557600080fd5b61154187838801611418565b9350604086013591508082111561155757600080fd5b5061156486828701611418565b9150509250925092565b6000806040838503121561158157600080fd5b61158a836113fc565b946020939093013593505050565b600080604083850312156115ab57600080fd5b823567ffffffffffffffff808211156115c357600080fd5b6115cf86838701611418565b935060208501359150808211156115e557600080fd5b506115f285828601611418565b9150509250929050565b60006020828403121561160e57600080fd5b5035919050565b6000815180845260005b8181101561163b5760208185018101518683018201520161161f565b8181111561164d576000602083870101525b50601f01601f19169290920160200192915050565b6020808252825182820181905260009190848201906040850190845b818110156116a35783516001600160a01b03168352928401929184019160010161167e565b50909695505050505050565b60a0815260006116c260a0830188611615565b82810360208401526116d48188611615565b6001600160a01b0396909616604084015250506060810192909252151560809091015292915050565b60008161170c5761170c61176a565b506000190190565b600181811c9082168061172857607f821691505b6020821081141561174957634e487b7160e01b600052602260045260246000fd5b50919050565b60006000198214156117635761176361176a565b5060010190565b634e487b7160e01b600052601160045260246000fd5b634e487b7160e01b600052603260045260246000fd5b634e487b7160e01b600052604160045260246000fdfea26469706673582212208dc276631530b66fd7036d982cf56d3bdc94691632923c42495de1d0d702410564736f6c63430008070033",
  "immutableReferences": {},
  "source": "// SPDX-License-Identifier: MIT\npragma solidity ^0.8.0;\n\ncontract LandManagement {\n    struct Land {\n        string photoHash;\n        string jsonHash;\n        address owner;\n        uint256 price;\n        bool isForSale;\n    }\n\n    struct LandHistory {\n        address owner;\n        uint256 timestamp;\n    }\n\n    mapping(address => Land) public lands;\n    address[] public landsArray;\n    mapping(address => LandHistory[]) public landHistory;\n    mapping(address => uint256) public ownerLandCount;\n    mapping(address => uint256) public landHistoryCount;\n    uint256 public landCount;\n    uint256 public sellableLandCount;\n\n    modifier onlyAdmin() {\n        require(msg.sender == admin, \"Only admin can perform this operation.\");\n        _;\n    }\n\n    address public admin;\n\n    constructor() {\n        admin = msg.sender;\n        landCount = 0;\n    }\n\n    event LandAdded(address indexed landId, address indexed owner);\n    event LandForSale(address indexed landId, uint256 price, address owner);\n    event LandSold(\n        address indexed landId,\n        uint256 price,\n        address indexed oldOwner,\n        address indexed newOwner,\n        uint256 timestamp\n    );\n\n    function addLand(\n        string memory _photoHash,\n        string memory _jsonHash\n    ) public onlyAdmin returns (address) {\n        address landId = address(\n            uint160(\n                uint(keccak256(abi.encodePacked(msg.sender, block.timestamp)))\n            )\n        );\n        require(lands[landId].owner == address(0), \"This land already exists.\");\n        address owner = admin;\n        lands[landId].owner = owner;\n        lands[landId].photoHash = _photoHash;\n        lands[landId].jsonHash = _jsonHash;\n        lands[landId].isForSale = false;\n        landHistory[landId].push(LandHistory(owner, block.timestamp));\n        ownerLandCount[owner]++;\n        landsArray.push(landId);\n        landHistoryCount[landId]++;\n        landCount++;\n        emit LandAdded(landId, owner);\n        return landId;\n    }\n\n    function addLandForAccount(\n        address owner,\n        string memory _photoHash,\n        string memory _jsonHash\n    ) public onlyAdmin returns (address) {\n        address landId = address(\n            uint160(\n                uint(keccak256(abi.encodePacked(msg.sender, block.timestamp)))\n            )\n        );\n        require(lands[landId].owner == address(0), \"This land already exists.\");\n        lands[landId].owner = owner;\n        lands[landId].photoHash = _photoHash;\n        lands[landId].jsonHash = _jsonHash;\n        lands[landId].isForSale = false;\n        landHistory[landId].push(LandHistory(owner, block.timestamp));\n        ownerLandCount[owner]++;\n        landsArray.push(landId);\n        landHistoryCount[landId]++;\n        landCount++;\n        emit LandAdded(landId, owner);\n        return landId;\n    }\n\n    function transferLandOwnership(address landId, address newOwner) public {\n        require(\n            lands[landId].owner == msg.sender,\n            \"You must own this land to transfer it.\"\n        );\n        ownerLandCount[lands[landId].owner]--;\n        lands[landId].owner = newOwner;\n        landHistoryCount[landId]++;\n        ownerLandCount[newOwner]++;\n        landHistory[landId].push(LandHistory(newOwner, block.timestamp));\n    }\n\n    function sellLand(address landId, uint256 price) public {\n        require(\n            msg.sender == lands[landId].owner,\n            \"You must own this land to sell it.\"\n        );\n        require(!lands[landId].isForSale, \"This land is already for sale.\");\n        lands[landId].price = price;\n        lands[landId].isForSale = true;\n        sellableLandCount++;\n        emit LandForSale(landId, price, msg.sender);\n    }\n\n    function buyLand(address landId) public payable {\n        Land storage land = lands[landId];\n        require(land.isForSale, \"This land is not for sale.\");\n        require(msg.value >= land.price, \"Insufficient payment.\");\n        address oldOwner = land.owner;\n        ownerLandCount[oldOwner]--;\n        land.owner = msg.sender;\n        ownerLandCount[msg.sender]++;\n        landHistory[landId].push(LandHistory(msg.sender, block.timestamp));\n        land.isForSale = false;\n        landHistoryCount[landId]++;\n        sellableLandCount--;\n        payable(oldOwner).transfer(msg.value);\n        emit LandSold(\n            landId,\n            land.price,\n            oldOwner,\n            msg.sender,\n            block.timestamp\n        );\n    }\n\n    function getLandsIdByAccount(\n        address account\n    ) public view returns (address[] memory) {\n        uint256 count = ownerLandCount[account];\n        address[] memory landsForAccount = new address[](count);\n        for (uint256 i = 0; i < landCount; i++) {\n            if (lands[landsArray[i]].owner == account) {\n                landsForAccount[i] = landsArray[i];\n            }\n        }\n        return landsForAccount;\n    }\n\n    function getSellable() public view returns (address[] memory) {\n        uint256 count = sellableLandCount;\n        address[] memory landsForSale = new address[](count);\n        for (uint256 i = 0; i < landCount; i++) {\n            if (lands[landsArray[i]].isForSale) {\n                landsForSale[i] = landsArray[i];\n            }\n        }\n        return landsForSale;\n    }\n\n    function getAllLands() public view returns (address[] memory) {\n        uint256 count = landCount;\n        address[] memory allLands = new address[](count);\n        for (uint256 i = 0; i < landCount; i++) {\n            allLands[i] = landsArray[i];\n        }\n        return allLands;\n    }\n}\n",
  "sourcePath": "/Users/obedovabor/Projects/land-management/contracts/LandManagement.sol",
  "compiler": {
    "name": "solc",
    "version": "0.8.7+commit.e28d00a7.Emscripten.clang"
  },
  "schemaVersion": "3.4.11",
  "updatedAt": "2023-03-27T17:51:39.205Z",
  "networkType": "ethereum",
  "devdoc": {
    "kind": "dev",
    "methods": {},
    "version": 1
  },
  "userdoc": {
    "kind": "user",
    "methods": {},
    "version": 1
  }
}