{
  "contractName": "LandManagement",
  "abi": [
    {
      "inputs": [],
      "stateMutability": "nonpayable",
      "type": "constructor"
    },
    {
      "anonymous": false,
      "inputs": [
        {
          "indexed": true,
          "internalType": "address",
          "name": "landId",
          "type": "address"
        },
        {
          "indexed": true,
          "internalType": "address",
          "name": "owner",
          "type": "address"
        }
      ],
      "name": "LandAdded",
      "type": "event"
    },
    {
      "anonymous": false,
      "inputs": [
        {
          "indexed": true,
          "internalType": "address",
          "name": "landId",
          "type": "address"
        },
        {
          "indexed": false,
          "internalType": "uint256",
          "name": "price",
          "type": "uint256"
        },
        {
          "indexed": false,
          "internalType": "address",
          "name": "owner",
          "type": "address"
        }
      ],
      "name": "LandForSale",
      "type": "event"
    },
    {
      "anonymous": false,
      "inputs": [
        {
          "indexed": true,
          "internalType": "address",
          "name": "landId",
          "type": "address"
        },
        {
          "indexed": false,
          "internalType": "uint256",
          "name": "price",
          "type": "uint256"
        },
        {
          "indexed": true,
          "internalType": "address",
          "name": "oldOwner",
          "type": "address"
        },
        {
          "indexed": true,
          "internalType": "address",
          "name": "newOwner",
          "type": "address"
        },
        {
          "indexed": false,
          "internalType": "uint256",
          "name": "timestamp",
          "type": "uint256"
        }
      ],
      "name": "LandSold",
      "type": "event"
    },
    {
      "inputs": [],
      "name": "admin",
      "outputs": [
        {
          "internalType": "address",
          "name": "",
          "type": "address"
        }
      ],
      "stateMutability": "view",
      "type": "function",
      "constant": true
    },
    {
      "inputs": [],
      "name": "landCount",
      "outputs": [
        {
          "internalType": "uint256",
          "name": "",
          "type": "uint256"
        }
      ],
      "stateMutability": "view",
      "type": "function",
      "constant": true
    },
    {
      "inputs": [
        {
          "internalType": "address",
          "name": "",
          "type": "address"
        },
        {
          "internalType": "uint256",
          "name": "",
          "type": "uint256"
        }
      ],
      "name": "landHistory",
      "outputs": [
        {
          "internalType": "address",
          "name": "owner",
          "type": "address"
        },
        {
          "internalType": "uint256",
          "name": "timestamp",
          "type": "uint256"
        }
      ],
      "stateMutability": "view",
      "type": "function",
      "constant": true
    },
    {
      "inputs": [
        {
          "internalType": "address",
          "name": "",
          "type": "address"
        }
      ],
      "name": "landHistoryCount",
      "outputs": [
        {
          "internalType": "uint256",
          "name": "",
          "type": "uint256"
        }
      ],
      "stateMutability": "view",
      "type": "function",
      "constant": true
    },
    {
      "inputs": [
        {
          "internalType": "address",
          "name": "",
          "type": "address"
        }
      ],
      "name": "lands",
      "outputs": [
        {
          "internalType": "string",
          "name": "photoHash",
          "type": "string"
        },
        {
          "internalType": "string",
          "name": "jsonHash",
          "type": "string"
        },
        {
          "internalType": "address",
          "name": "owner",
          "type": "address"
        },
        {
          "internalType": "uint256",
          "name": "price",
          "type": "uint256"
        },
        {
          "internalType": "bool",
          "name": "isForSale",
          "type": "bool"
        }
      ],
      "stateMutability": "view",
      "type": "function",
      "constant": true
    },
    {
      "inputs": [
        {
          "internalType": "uint256",
          "name": "",
          "type": "uint256"
        }
      ],
      "name": "landsArray",
      "outputs": [
        {
          "internalType": "address",
          "name": "",
          "type": "address"
        }
      ],
      "stateMutability": "view",
      "type": "function",
      "constant": true
    },
    {
      "inputs": [
        {
          "internalType": "address",
          "name": "",
          "type": "address"
        }
      ],
      "name": "ownerLandCount",
      "outputs": [
        {
          "internalType": "uint256",
          "name": "",
          "type": "uint256"
        }
      ],
      "stateMutability": "view",
      "type": "function",
      "constant": true
    },
    {
      "inputs": [],
      "name": "sellableLandCount",
      "outputs": [
        {
          "internalType": "uint256",
          "name": "",
          "type": "uint256"
        }
      ],
      "stateMutability": "view",
      "type": "function",
      "constant": true
    },
    {
      "inputs": [
        {
          "internalType": "string",
          "name": "_photoHash",
          "type": "string"
        },
        {
          "internalType": "string",
          "name": "_jsonHash",
          "type": "string"
        }
      ],
      "name": "addLand",
      "outputs": [
        {
          "internalType": "address",
          "name": "",
          "type": "address"
        }
      ],
      "stateMutability": "nonpayable",
      "type": "function"
    },
    {
      "inputs": [
        {
          "internalType": "address",
          "name": "owner",
          "type": "address"
        },
        {
          "internalType": "string",
          "name": "_photoHash",
          "type": "string"
        },
        {
          "internalType": "string",
          "name": "_jsonHash",
          "type": "string"
        }
      ],
      "name": "addLandForAccount",
      "outputs": [
        {
          "internalType": "address",
          "name": "",
          "type": "address"
        }
      ],
      "stateMutability": "nonpayable",
      "type": "function"
    },
    {
      "inputs": [
        {
          "internalType": "address",
          "name": "landId",
          "type": "address"
        },
        {
          "internalType": "address",
          "name": "newOwner",
          "type": "address"
        }
      ],
      "name": "transferLandOwnership",
      "outputs": [],
      "stateMutability": "nonpayable",
      "type": "function"
    },
    {
      "inputs": [
        {
          "internalType": "address",
          "name": "landId",
          "type": "address"
        },
        {
          "internalType": "uint256",
          "name": "price",
          "type": "uint256"
        }
      ],
      "name": "sellLand",
      "outputs": [],
      "stateMutability": "nonpayable",
      "type": "function"
    },
    {
      "inputs": [
        {
          "internalType": "address",
          "name": "landId",
          "type": "address"
        }
      ],
      "name": "stopSale",
      "outputs": [],
      "stateMutability": "nonpayable",
      "type": "function"
    },
    {
      "inputs": [
        {
          "internalType": "address",
          "name": "landId",
          "type": "address"
        }
      ],
      "name": "buyLand",
      "outputs": [],
      "stateMutability": "payable",
      "type": "function",
      "payable": true
    },
    {
      "inputs": [
        {
          "internalType": "address",
          "name": "account",
          "type": "address"
        }
      ],
      "name": "getLandsIdByAccount",
      "outputs": [
        {
          "internalType": "address[]",
          "name": "",
          "type": "address[]"
        }
      ],
      "stateMutability": "view",
      "type": "function",
      "constant": true
    },
    {
      "inputs": [],
      "name": "getSellable",
      "outputs": [
        {
          "internalType": "address[]",
          "name": "",
          "type": "address[]"
        }
      ],
      "stateMutability": "view",
      "type": "function",
      "constant": true
    },
    {
      "inputs": [],
      "name": "getAllLands",
      "outputs": [
        {
          "internalType": "address[]",
          "name": "",
          "type": "address[]"
        }
      ],
      "stateMutability": "view",
      "type": "function",
      "constant": true
    }
  ],
  "bytecode": "0x608060405234801561001057600080fd5b50600780546001600160a01b031916331790556000600555611963806100376000396000f3fe60806040526004361061010e5760003560e01c8063a0c81640116100a5578063bb436edb11610074578063ef65836411610059578063ef65836414610324578063f2a18ccd14610344578063f851a4401461036457600080fd5b8063bb436edb146102cf578063d7bce6581461030e57600080fd5b8063a0c8164014610257578063a67efeae14610277578063b35cfafc146102a4578063b7b6e543146102ba57600080fd5b806359a5c744116100e157806359a5c744146101cc578063692112a3146101df5780637af774e3146101ff578063947b30da1461023757600080fd5b80632578ebc8146101135780632daa12661461013e57806333b22760146101605780635906733114610191575b600080fd5b34801561011f57600080fd5b50610128610384565b60405161013591906117e3565b60405180910390f35b34801561014a57600080fd5b5061015e610159366004611648565b6104a1565b005b34801561016c57600080fd5b5061018061017b366004611626565b610649565b604051610135959493929190611830565b34801561019d57600080fd5b506101be6101ac366004611626565b60046020526000908152604090205481565b604051908152602001610135565b61015e6101da366004611626565b610796565b3480156101eb57600080fd5b506101286101fa366004611626565b6109eb565b34801561020b57600080fd5b5061021f61021a366004611719565b610b2b565b6040516001600160a01b039091168152602001610135565b34801561024357600080fd5b5061015e610252366004611626565b610e0e565b34801561026357600080fd5b5061015e6102723660046116ef565b610f4b565b34801561028357600080fd5b506101be610292366004611626565b60036020526000908152604090205481565b3480156102b057600080fd5b506101be60065481565b3480156102c657600080fd5b506101286110d0565b3480156102db57600080fd5b506102ef6102ea3660046116ef565b611197565b604080516001600160a01b039093168352602083019190915201610135565b34801561031a57600080fd5b506101be60055481565b34801561033057600080fd5b5061021f61033f36600461177d565b6111dd565b34801561035057600080fd5b5061021f61035f36600461167b565b611207565b34801561037057600080fd5b5060075461021f906001600160a01b031681565b60065460609060008167ffffffffffffffff8111156103a5576103a5611917565b6040519080825280602002602001820160405280156103ce578160200160208202803683370190505b50905060005b60055481101561049a57600080600183815481106103f4576103f4611901565b60009182526020808320909101546001600160a01b0316835282019290925260400190206004015460ff1615610488576001818154811061043757610437611901565b9060005260206000200160009054906101000a90046001600160a01b031682828151811061046757610467611901565b60200260200101906001600160a01b031690816001600160a01b0316815250505b80610492816118d0565b9150506103d4565b5092915050565b6001600160a01b038281166000908152602081905260409020600201541633146105385760405162461bcd60e51b815260206004820152602660248201527f596f75206d757374206f776e2074686973206c616e6420746f207472616e736660448201527f65722069742e000000000000000000000000000000000000000000000000000060648201526084015b60405180910390fd5b6001600160a01b038083166000908152602081815260408083206002015490931682526003905290812080549161056e8361187e565b90915550506001600160a01b0382811660009081526020818152604080832060020180546001600160a01b03191694861694909417909355600490529081208054916105b9836118d0565b90915550506001600160a01b03811660009081526003602052604081208054916105e2836118d0565b90915550506001600160a01b03918216600090815260026020818152604080842081518083019092529486168152428183019081528554600180820188559686529290942090519190920290910180546001600160a01b0319169190941617835551910155565b60006020819052908152604090208054819061066490611895565b80601f016020809104026020016040519081016040528092919081815260200182805461069090611895565b80156106dd5780601f106106b2576101008083540402835291602001916106dd565b820191906000526020600020905b8154815290600101906020018083116106c057829003601f168201915b5050505050908060010180546106f290611895565b80601f016020809104026020016040519081016040528092919081815260200182805461071e90611895565b801561076b5780601f106107405761010080835404028352916020019161076b565b820191906000526020600020905b81548152906001019060200180831161074e57829003601f168201915b505050506002830154600384015460049094015492936001600160a01b039091169290915060ff1685565b6001600160a01b0381166000908152602081905260409020600481015460ff166108025760405162461bcd60e51b815260206004820152601a60248201527f54686973206c616e64206973206e6f7420666f722073616c652e000000000000604482015260640161052f565b80600301543410156108565760405162461bcd60e51b815260206004820152601560248201527f496e73756666696369656e74207061796d656e742e0000000000000000000000604482015260640161052f565b60028101546001600160a01b0316600081815260036020526040812080549161087e8361187e565b90915550506002820180546001600160a01b0319163390811790915560006003808501829055918152602091909152604081208054916108bd836118d0565b90915550506001600160a01b03838116600081815260026020818152604080842081518083018352338152428185019081528254600180820185559388528588209251960290910180546001600160a01b03191695909816949094178755925195909201949094556004868101805460ff19169055928252919092528120805491610947836118d0565b90915550506006805490600061095c8361187e565b90915550506040516001600160a01b038216903480156108fc02916000818181858888f19350505050158015610996573d6000803e3d6000fd5b5060038201546040805191825242602083015233916001600160a01b0384811692908716917fa3f5d4a27d4b403b6ab66d8e51ca66e5d73e45f3613df6a530a8cf7943e051d1910160405180910390a4505050565b6001600160a01b0381166000908152600360205260408120546060918167ffffffffffffffff811115610a2057610a20611917565b604051908082528060200260200182016040528015610a49578160200160208202803683370190505b50905060005b600554811015610b2357846001600160a01b031660008060018481548110610a7957610a79611901565b60009182526020808320909101546001600160a01b039081168452908301939093526040909101902060020154161415610b115760018181548110610ac057610ac0611901565b9060005260206000200160009054906101000a90046001600160a01b0316828281518110610af057610af0611901565b60200260200101906001600160a01b031690816001600160a01b0316815250505b80610b1b816118d0565b915050610a4f565b509392505050565b6007546000906001600160a01b03163314610b975760405162461bcd60e51b815260206004820152602660248201527f4f6e6c792061646d696e2063616e20706572666f726d2074686973206f70657260448201526530ba34b7b71760d11b606482015260840161052f565b6040516bffffffffffffffffffffffff193360601b16602082015242603482015260009060540160408051601f1981840301815291815281516020928301206001600160a01b0380821660009081529384905291909220600201549192501615610c435760405162461bcd60e51b815260206004820152601960248201527f54686973206c616e6420616c7265616479206578697374732e00000000000000604482015260640161052f565b6007546001600160a01b038281166000908152602081815260409091206002810180546001600160a01b0319169390941692831790935586519192610c8c9290918801906114e4565b506001600160a01b0382166000908152602081815260409091208551610cba926001909201918701906114e4565b506001600160a01b03828116600090815260208181526040808320600401805460ff19169055600280835281842082518084018452878716808252428287019081528354600181810186559489528789209351950290920180546001600160a01b031916949098169390931787555195019490945592825260039052908120805491610d45836118d0565b9091555050600180548082019091557fb10e2d527612073b26eecdfd717e6a320cf44b4afac2b0732d9fcbe2b7fa0cf60180546001600160a01b0319166001600160a01b0384169081179091556000908152600460205260408120805491610dac836118d0565b909155505060058054906000610dc1836118d0565b9190505550806001600160a01b0316826001600160a01b03167f3f405b948b7115df55f0e424c1b83969949e859b12290b021ca6004f117b09eb60405160405180910390a3509392505050565b6001600160a01b03818116600090815260208190526040902060020154163314610ea05760405162461bcd60e51b815260206004820152602860248201527f596f75206d757374206f776e2074686973206c616e6420746f2073746f70206960448201527f74732073616c652e000000000000000000000000000000000000000000000000606482015260840161052f565b6001600160a01b03811660009081526020819052604090206004015460ff16610f0b5760405162461bcd60e51b815260206004820152601a60248201527f54686973206c616e64206973206e6f7420666f722073616c652e000000000000604482015260640161052f565b6001600160a01b038116600090815260208190526040812060038101829055600401805460ff191690556006805491610f438361187e565b919050555050565b6001600160a01b03828116600090815260208190526040902060020154163314610fdd5760405162461bcd60e51b815260206004820152602260248201527f596f75206d757374206f776e2074686973206c616e6420746f2073656c6c206960448201527f742e000000000000000000000000000000000000000000000000000000000000606482015260840161052f565b6001600160a01b03821660009081526020819052604090206004015460ff16156110495760405162461bcd60e51b815260206004820152601e60248201527f54686973206c616e6420697320616c726561647920666f722073616c652e0000604482015260640161052f565b6001600160a01b038216600090815260208190526040812060038101839055600401805460ff191660011790556006805491611084836118d0565b9091555050604080518281523360208201526001600160a01b038416917f8cc58a23fcd3651fe691049335d54eb171157ca487b73b3ebad9b10bea5d1fe0910160405180910390a25050565b60055460609060008167ffffffffffffffff8111156110f1576110f1611917565b60405190808252806020026020018201604052801561111a578160200160208202803683370190505b50905060005b60055481101561049a576001818154811061113d5761113d611901565b9060005260206000200160009054906101000a90046001600160a01b031682828151811061116d5761116d611901565b6001600160a01b03909216602092830291909101909101528061118f816118d0565b915050611120565b600260205281600052604060002081815481106111b357600080fd5b6000918252602090912060029091020180546001909101546001600160a01b039091169250905082565b600181815481106111ed57600080fd5b6000918252602090912001546001600160a01b0316905081565b6007546000906001600160a01b031633146112735760405162461bcd60e51b815260206004820152602660248201527f4f6e6c792061646d696e2063616e20706572666f726d2074686973206f70657260448201526530ba34b7b71760d11b606482015260840161052f565b6040516bffffffffffffffffffffffff193360601b16602082015242603482015260009060540160408051601f1981840301815291815281516020928301206001600160a01b038082166000908152938490529190922060020154919250161561131f5760405162461bcd60e51b815260206004820152601960248201527f54686973206c616e6420616c7265616479206578697374732e00000000000000604482015260640161052f565b6001600160a01b038181166000908152602081815260409091206002810180546001600160a01b03191693891693909317909255855161136292918701906114e4565b506001600160a01b0381166000908152602081815260409091208451611390926001909201918601906114e4565b506001600160a01b03818116600090815260208181526040808320600401805460ff191690556002808352818420825180840184528b8716808252428287019081528354600181810186559489528789209351950290920180546001600160a01b03191694909816939093178755519501949094559282526003905290812080549161141b836118d0565b9091555050600180548082019091557fb10e2d527612073b26eecdfd717e6a320cf44b4afac2b0732d9fcbe2b7fa0cf60180546001600160a01b0319166001600160a01b0383169081179091556000908152600460205260408120805491611482836118d0565b909155505060058054906000611497836118d0565b9190505550846001600160a01b0316816001600160a01b03167f3f405b948b7115df55f0e424c1b83969949e859b12290b021ca6004f117b09eb60405160405180910390a3949350505050565b8280546114f090611895565b90600052602060002090601f0160209004810192826115125760008555611558565b82601f1061152b57805160ff1916838001178555611558565b82800160010185558215611558579182015b8281111561155857825182559160200191906001019061153d565b50611564929150611568565b5090565b5b808211156115645760008155600101611569565b80356001600160a01b038116811461159457600080fd5b919050565b600082601f8301126115aa57600080fd5b813567ffffffffffffffff808211156115c5576115c5611917565b604051601f8301601f19908116603f011681019082821181831017156115ed576115ed611917565b8160405283815286602085880101111561160657600080fd5b836020870160208301376000602085830101528094505050505092915050565b60006020828403121561163857600080fd5b6116418261157d565b9392505050565b6000806040838503121561165b57600080fd5b6116648361157d565b91506116726020840161157d565b90509250929050565b60008060006060848603121561169057600080fd5b6116998461157d565b9250602084013567ffffffffffffffff808211156116b657600080fd5b6116c287838801611599565b935060408601359150808211156116d857600080fd5b506116e586828701611599565b9150509250925092565b6000806040838503121561170257600080fd5b61170b8361157d565b946020939093013593505050565b6000806040838503121561172c57600080fd5b823567ffffffffffffffff8082111561174457600080fd5b61175086838701611599565b9350602085013591508082111561176657600080fd5b5061177385828601611599565b9150509250929050565b60006020828403121561178f57600080fd5b5035919050565b6000815180845260005b818110156117bc576020818501810151868301820152016117a0565b818111156117ce576000602083870101525b50601f01601f19169290920160200192915050565b6020808252825182820181905260009190848201906040850190845b818110156118245783516001600160a01b0316835292840192918401916001016117ff565b50909695505050505050565b60a08152600061184360a0830188611796565b82810360208401526118558188611796565b6001600160a01b0396909616604084015250506060810192909252151560809091015292915050565b60008161188d5761188d6118eb565b506000190190565b600181811c908216806118a957607f821691505b602082108114156118ca57634e487b7160e01b600052602260045260246000fd5b50919050565b60006000198214156118e4576118e46118eb565b5060010190565b634e487b7160e01b600052601160045260246000fd5b634e487b7160e01b600052603260045260246000fd5b634e487b7160e01b600052604160045260246000fdfea264697066735822122098a50265bfe606c96060f498d708c21114ef577be5715994b5e50f05716f211564736f6c63430008070033",
  "immutableReferences": {},
  "source": "// SPDX-License-Identifier: MIT\npragma solidity ^0.8.0;\n\ncontract LandManagement {\n    struct Land {\n        string photoHash;\n        string jsonHash;\n        address owner;\n        uint256 price;\n        bool isForSale;\n    }\n\n    struct LandHistory {\n        address owner;\n        uint256 timestamp;\n    }\n\n    mapping(address => Land) public lands;\n    address[] public landsArray;\n    mapping(address => LandHistory[]) public landHistory;\n    mapping(address => uint256) public ownerLandCount;\n    mapping(address => uint256) public landHistoryCount;\n    uint256 public landCount;\n    uint256 public sellableLandCount;\n\n    modifier onlyAdmin() {\n        require(msg.sender == admin, \"Only admin can perform this operation.\");\n        _;\n    }\n\n    address public admin;\n\n    constructor() {\n        admin = msg.sender;\n        landCount = 0;\n    }\n\n    event LandAdded(address indexed landId, address indexed owner);\n    event LandForSale(address indexed landId, uint256 price, address owner);\n    event LandSold(\n        address indexed landId,\n        uint256 price,\n        address indexed oldOwner,\n        address indexed newOwner,\n        uint256 timestamp\n    );\n\n    function addLand(\n        string memory _photoHash,\n        string memory _jsonHash\n    ) public onlyAdmin returns (address) {\n        address landId = address(\n            uint160(\n                uint(keccak256(abi.encodePacked(msg.sender, block.timestamp)))\n            )\n        );\n        require(lands[landId].owner == address(0), \"This land already exists.\");\n        address owner = admin;\n        lands[landId].owner = owner;\n        lands[landId].photoHash = _photoHash;\n        lands[landId].jsonHash = _jsonHash;\n        lands[landId].isForSale = false;\n        landHistory[landId].push(LandHistory(owner, block.timestamp));\n        ownerLandCount[owner]++;\n        landsArray.push(landId);\n        landHistoryCount[landId]++;\n        landCount++;\n        emit LandAdded(landId, owner);\n        return landId;\n    }\n\n    function addLandForAccount(\n        address owner,\n        string memory _photoHash,\n        string memory _jsonHash\n    ) public onlyAdmin returns (address) {\n        address landId = address(\n            uint160(\n                uint(keccak256(abi.encodePacked(msg.sender, block.timestamp)))\n            )\n        );\n        require(lands[landId].owner == address(0), \"This land already exists.\");\n        lands[landId].owner = owner;\n        lands[landId].photoHash = _photoHash;\n        lands[landId].jsonHash = _jsonHash;\n        lands[landId].isForSale = false;\n        landHistory[landId].push(LandHistory(owner, block.timestamp));\n        ownerLandCount[owner]++;\n        landsArray.push(landId);\n        landHistoryCount[landId]++;\n        landCount++;\n        emit LandAdded(landId, owner);\n        return landId;\n    }\n\n    function transferLandOwnership(address landId, address newOwner) public {\n        require(\n            lands[landId].owner == msg.sender,\n            \"You must own this land to transfer it.\"\n        );\n        ownerLandCount[lands[landId].owner]--;\n        lands[landId].owner = newOwner;\n        landHistoryCount[landId]++;\n        ownerLandCount[newOwner]++;\n        landHistory[landId].push(LandHistory(newOwner, block.timestamp));\n    }\n\n    function sellLand(address landId, uint256 price) public {\n        require(\n            msg.sender == lands[landId].owner,\n            \"You must own this land to sell it.\"\n        );\n        require(!lands[landId].isForSale, \"This land is already for sale.\");\n        lands[landId].price = price;\n        lands[landId].isForSale = true;\n        sellableLandCount++;\n        emit LandForSale(landId, price, msg.sender);\n    }\n\n    function stopSale(address landId) public {\n        require(\n            msg.sender == lands[landId].owner,\n            \"You must own this land to stop its sale.\"\n        );\n        require(lands[landId].isForSale, \"This land is not for sale.\");\n        lands[landId].price = 0;\n        lands[landId].isForSale = false;\n        sellableLandCount--;\n    }\n\n    function buyLand(address landId) public payable {\n        Land storage land = lands[landId];\n        require(land.isForSale, \"This land is not for sale.\");\n        require(msg.value >= land.price, \"Insufficient payment.\");\n        address oldOwner = land.owner;\n        ownerLandCount[oldOwner]--;\n        land.owner = msg.sender;\n        land.price = 0;\n        ownerLandCount[msg.sender]++;\n        landHistory[landId].push(LandHistory(msg.sender, block.timestamp));\n        land.isForSale = false;\n        landHistoryCount[landId]++;\n        sellableLandCount--;\n        payable(oldOwner).transfer(msg.value);\n        emit LandSold(\n            landId,\n            land.price,\n            oldOwner,\n            msg.sender,\n            block.timestamp\n        );\n    }\n\n    function getLandsIdByAccount(\n        address account\n    ) public view returns (address[] memory) {\n        uint256 count = ownerLandCount[account];\n        address[] memory landsForAccount = new address[](count);\n        for (uint256 i = 0; i < landCount; i++) {\n            if (lands[landsArray[i]].owner == account) {\n                landsForAccount[i] = landsArray[i];\n            }\n        }\n        return landsForAccount;\n    }\n\n    function getSellable() public view returns (address[] memory) {\n        uint256 count = sellableLandCount;\n        address[] memory landsForSale = new address[](count);\n        for (uint256 i = 0; i < landCount; i++) {\n            if (lands[landsArray[i]].isForSale) {\n                landsForSale[i] = landsArray[i];\n            }\n        }\n        return landsForSale;\n    }\n\n    function getAllLands() public view returns (address[] memory) {\n        uint256 count = landCount;\n        address[] memory allLands = new address[](count);\n        for (uint256 i = 0; i < landCount; i++) {\n            allLands[i] = landsArray[i];\n        }\n        return allLands;\n    }\n}\n",
  "sourcePath": "/Users/obedovabor/Projects/land-management/contracts/LandManagement.sol",
  "compiler": {
    "name": "solc",
    "version": "0.8.7+commit.e28d00a7.Emscripten.clang"
  },
  "schemaVersion": "3.4.11",
  "updatedAt": "2023-03-28T18:52:23.753Z",
  "networkType": "ethereum",
  "devdoc": {
    "kind": "dev",
    "methods": {},
    "version": 1
  },
  "userdoc": {
    "kind": "user",
    "methods": {},
    "version": 1
  }
}