{
  "contractName": "LandManagement",
  "abi": [
    {
      "inputs": [],
      "stateMutability": "nonpayable",
      "type": "constructor"
    },
    {
      "anonymous": false,
      "inputs": [
        {
          "indexed": true,
          "internalType": "address",
          "name": "landId",
          "type": "address"
        },
        {
          "indexed": true,
          "internalType": "address",
          "name": "owner",
          "type": "address"
        }
      ],
      "name": "LandAdded",
      "type": "event"
    },
    {
      "anonymous": false,
      "inputs": [
        {
          "indexed": true,
          "internalType": "address",
          "name": "landId",
          "type": "address"
        },
        {
          "indexed": false,
          "internalType": "uint256",
          "name": "price",
          "type": "uint256"
        },
        {
          "indexed": false,
          "internalType": "address",
          "name": "owner",
          "type": "address"
        }
      ],
      "name": "LandForSale",
      "type": "event"
    },
    {
      "anonymous": false,
      "inputs": [
        {
          "indexed": true,
          "internalType": "address",
          "name": "landId",
          "type": "address"
        },
        {
          "indexed": false,
          "internalType": "uint256",
          "name": "price",
          "type": "uint256"
        },
        {
          "indexed": true,
          "internalType": "address",
          "name": "oldOwner",
          "type": "address"
        },
        {
          "indexed": true,
          "internalType": "address",
          "name": "newOwner",
          "type": "address"
        },
        {
          "indexed": false,
          "internalType": "uint256",
          "name": "timestamp",
          "type": "uint256"
        }
      ],
      "name": "LandSold",
      "type": "event"
    },
    {
      "inputs": [],
      "name": "admin",
      "outputs": [
        {
          "internalType": "address",
          "name": "",
          "type": "address"
        }
      ],
      "stateMutability": "view",
      "type": "function",
      "constant": true
    },
    {
      "inputs": [],
      "name": "landCount",
      "outputs": [
        {
          "internalType": "uint256",
          "name": "",
          "type": "uint256"
        }
      ],
      "stateMutability": "view",
      "type": "function",
      "constant": true
    },
    {
      "inputs": [
        {
          "internalType": "address",
          "name": "",
          "type": "address"
        },
        {
          "internalType": "uint256",
          "name": "",
          "type": "uint256"
        }
      ],
      "name": "landHistory",
      "outputs": [
        {
          "internalType": "address",
          "name": "owner",
          "type": "address"
        },
        {
          "internalType": "uint256",
          "name": "timestamp",
          "type": "uint256"
        }
      ],
      "stateMutability": "view",
      "type": "function",
      "constant": true
    },
    {
      "inputs": [
        {
          "internalType": "address",
          "name": "",
          "type": "address"
        }
      ],
      "name": "landHistoryCount",
      "outputs": [
        {
          "internalType": "uint256",
          "name": "",
          "type": "uint256"
        }
      ],
      "stateMutability": "view",
      "type": "function",
      "constant": true
    },
    {
      "inputs": [
        {
          "internalType": "address",
          "name": "",
          "type": "address"
        }
      ],
      "name": "lands",
      "outputs": [
        {
          "internalType": "string",
          "name": "photoHash",
          "type": "string"
        },
        {
          "internalType": "string",
          "name": "jsonHash",
          "type": "string"
        },
        {
          "internalType": "address",
          "name": "owner",
          "type": "address"
        },
        {
          "internalType": "uint256",
          "name": "price",
          "type": "uint256"
        },
        {
          "internalType": "bool",
          "name": "isForSale",
          "type": "bool"
        }
      ],
      "stateMutability": "view",
      "type": "function",
      "constant": true
    },
    {
      "inputs": [
        {
          "internalType": "uint256",
          "name": "",
          "type": "uint256"
        }
      ],
      "name": "landsArray",
      "outputs": [
        {
          "internalType": "address",
          "name": "",
          "type": "address"
        }
      ],
      "stateMutability": "view",
      "type": "function",
      "constant": true
    },
    {
      "inputs": [
        {
          "internalType": "address",
          "name": "",
          "type": "address"
        }
      ],
      "name": "ownerLandCount",
      "outputs": [
        {
          "internalType": "uint256",
          "name": "",
          "type": "uint256"
        }
      ],
      "stateMutability": "view",
      "type": "function",
      "constant": true
    },
    {
      "inputs": [
        {
          "internalType": "string",
          "name": "_photoHash",
          "type": "string"
        },
        {
          "internalType": "string",
          "name": "_jsonHash",
          "type": "string"
        }
      ],
      "name": "addLand",
      "outputs": [
        {
          "internalType": "address",
          "name": "",
          "type": "address"
        }
      ],
      "stateMutability": "nonpayable",
      "type": "function"
    },
    {
      "inputs": [
        {
          "internalType": "address",
          "name": "owner",
          "type": "address"
        },
        {
          "internalType": "string",
          "name": "_photoHash",
          "type": "string"
        },
        {
          "internalType": "string",
          "name": "_jsonHash",
          "type": "string"
        }
      ],
      "name": "addLandForAccount",
      "outputs": [
        {
          "internalType": "address",
          "name": "",
          "type": "address"
        }
      ],
      "stateMutability": "nonpayable",
      "type": "function"
    },
    {
      "inputs": [
        {
          "internalType": "address",
          "name": "landId",
          "type": "address"
        },
        {
          "internalType": "address",
          "name": "newOwner",
          "type": "address"
        }
      ],
      "name": "transferLandOwnership",
      "outputs": [],
      "stateMutability": "nonpayable",
      "type": "function"
    },
    {
      "inputs": [
        {
          "internalType": "address",
          "name": "landId",
          "type": "address"
        },
        {
          "internalType": "uint256",
          "name": "price",
          "type": "uint256"
        }
      ],
      "name": "sellLand",
      "outputs": [],
      "stateMutability": "nonpayable",
      "type": "function"
    },
    {
      "inputs": [
        {
          "internalType": "address",
          "name": "landId",
          "type": "address"
        }
      ],
      "name": "buyLand",
      "outputs": [],
      "stateMutability": "payable",
      "type": "function",
      "payable": true
    },
    {
      "inputs": [
        {
          "internalType": "address",
          "name": "account",
          "type": "address"
        }
      ],
      "name": "getLandsIdByAccount",
      "outputs": [
        {
          "internalType": "address[]",
          "name": "",
          "type": "address[]"
        }
      ],
      "stateMutability": "view",
      "type": "function",
      "constant": true
    }
  ],
  "bytecode": "0x608060405234801561001057600080fd5b50600680546001600160a01b03191633179055600060055561156c806100376000396000f3fe6080604052600436106100d25760003560e01c8063a0c816401161007f578063d7bce65811610059578063d7bce65814610272578063ef65836414610288578063f2a18ccd146102a8578063f851a440146102c857600080fd5b8063a0c81640146101e6578063a67efeae14610206578063bb436edb1461023357600080fd5b806359a5c744116100b057806359a5c7441461016e578063692112a3146101815780637af774e3146101ae57600080fd5b80632daa1266146100d757806333b22760146100f95780635906733114610133575b600080fd5b3480156100e357600080fd5b506100f76100f2366004611251565b6102e8565b005b34801561010557600080fd5b5061011961011436600461122f565b610490565b60405161012a959493929190611439565b60405180910390f35b34801561013f57600080fd5b5061016061014e36600461122f565b60046020526000908152604090205481565b60405190815260200161012a565b6100f761017c36600461122f565b6105dd565b34801561018d57600080fd5b506101a161019c36600461122f565b610814565b60405161012a91906113ec565b3480156101ba57600080fd5b506101ce6101c9366004611322565b610954565b6040516001600160a01b03909116815260200161012a565b3480156101f257600080fd5b506100f76102013660046112f8565b610c37565b34801561021257600080fd5b5061016061022136600461122f565b60036020526000908152604090205481565b34801561023f57600080fd5b5061025361024e3660046112f8565b610da0565b604080516001600160a01b03909316835260208301919091520161012a565b34801561027e57600080fd5b5061016060055481565b34801561029457600080fd5b506101ce6102a3366004611386565b610de6565b3480156102b457600080fd5b506101ce6102c3366004611284565b610e10565b3480156102d457600080fd5b506006546101ce906001600160a01b031681565b6001600160a01b0382811660009081526020819052604090206002015416331461037f5760405162461bcd60e51b815260206004820152602660248201527f596f75206d757374206f776e2074686973206c616e6420746f207472616e736660448201527f65722069742e000000000000000000000000000000000000000000000000000060648201526084015b60405180910390fd5b6001600160a01b03808316600090815260208181526040808320600201549093168252600390529081208054916103b583611487565b90915550506001600160a01b0382811660009081526020818152604080832060020180546001600160a01b0319169486169490941790935560049052908120805491610400836114d9565b90915550506001600160a01b0381166000908152600360205260408120805491610429836114d9565b90915550506001600160a01b03918216600090815260026020818152604080842081518083019092529486168152428183019081528554600180820188559686529290942090519190920290910180546001600160a01b0319169190941617835551910155565b6000602081905290815260409020805481906104ab9061149e565b80601f01602080910402602001604051908101604052809291908181526020018280546104d79061149e565b80156105245780601f106104f957610100808354040283529160200191610524565b820191906000526020600020905b81548152906001019060200180831161050757829003601f168201915b5050505050908060010180546105399061149e565b80601f01602080910402602001604051908101604052809291908181526020018280546105659061149e565b80156105b25780601f10610587576101008083540402835291602001916105b2565b820191906000526020600020905b81548152906001019060200180831161059557829003601f168201915b505050506002830154600384015460049094015492936001600160a01b039091169290915060ff1685565b6001600160a01b0381166000908152602081905260409020600481015460ff166106495760405162461bcd60e51b815260206004820152601a60248201527f54686973206c616e64206973206e6f7420666f722073616c652e0000000000006044820152606401610376565b806003015434101561069d5760405162461bcd60e51b815260206004820152601560248201527f496e73756666696369656e74207061796d656e742e00000000000000000000006044820152606401610376565b60028101546001600160a01b031660008181526003602052604081208054916106c583611487565b90915550506002820180546001600160a01b0319163390811790915560009081526003602052604081208054916106fb836114d9565b90915550506001600160a01b03838116600081815260026020818152604080842081518083018352338152428185019081528254600180820185559388528588209251960290910180546001600160a01b03191695909816949094178755925195909201949094556004868101805460ff19169055928252919092528120805491610785836114d9565b90915550506040516001600160a01b038216903480156108fc02916000818181858888f193505050501580156107bf573d6000803e3d6000fd5b5060038201546040805191825242602083015233916001600160a01b0384811692908716917fa3f5d4a27d4b403b6ab66d8e51ca66e5d73e45f3613df6a530a8cf7943e051d1910160405180910390a4505050565b6001600160a01b0381166000908152600360205260408120546060918167ffffffffffffffff81111561084957610849611520565b604051908082528060200260200182016040528015610872578160200160208202803683370190505b50905060005b60055481101561094c57846001600160a01b0316600080600184815481106108a2576108a261150a565b60009182526020808320909101546001600160a01b03908116845290830193909352604090910190206002015416141561093a57600181815481106108e9576108e961150a565b9060005260206000200160009054906101000a90046001600160a01b03168282815181106109195761091961150a565b60200260200101906001600160a01b031690816001600160a01b0316815250505b80610944816114d9565b915050610878565b509392505050565b6006546000906001600160a01b031633146109c05760405162461bcd60e51b815260206004820152602660248201527f4f6e6c792061646d696e2063616e20706572666f726d2074686973206f70657260448201526530ba34b7b71760d11b6064820152608401610376565b6040516bffffffffffffffffffffffff193360601b16602082015242603482015260009060540160408051601f1981840301815291815281516020928301206001600160a01b0380821660009081529384905291909220600201549192501615610a6c5760405162461bcd60e51b815260206004820152601960248201527f54686973206c616e6420616c7265616479206578697374732e000000000000006044820152606401610376565b6006546001600160a01b038281166000908152602081815260409091206002810180546001600160a01b0319169390941692831790935586519192610ab59290918801906110ed565b506001600160a01b0382166000908152602081815260409091208551610ae3926001909201918701906110ed565b506001600160a01b03828116600090815260208181526040808320600401805460ff19169055600280835281842082518084018452878716808252428287019081528354600181810186559489528789209351950290920180546001600160a01b031916949098169390931787555195019490945592825260039052908120805491610b6e836114d9565b9091555050600180548082019091557fb10e2d527612073b26eecdfd717e6a320cf44b4afac2b0732d9fcbe2b7fa0cf60180546001600160a01b0319166001600160a01b0384169081179091556000908152600460205260408120805491610bd5836114d9565b909155505060058054906000610bea836114d9565b9190505550806001600160a01b0316826001600160a01b03167f3f405b948b7115df55f0e424c1b83969949e859b12290b021ca6004f117b09eb60405160405180910390a3509392505050565b6001600160a01b03828116600090815260208190526040902060020154163314610cc95760405162461bcd60e51b815260206004820152602260248201527f596f75206d757374206f776e2074686973206c616e6420746f2073656c6c206960448201527f742e0000000000000000000000000000000000000000000000000000000000006064820152608401610376565b6001600160a01b03821660009081526020819052604090206004015460ff1615610d355760405162461bcd60e51b815260206004820152601e60248201527f54686973206c616e6420697320616c726561647920666f722073616c652e00006044820152606401610376565b6001600160a01b0382166000818152602081815260409182902060038101859055600401805460ff19166001179055815184815233918101919091527f8cc58a23fcd3651fe691049335d54eb171157ca487b73b3ebad9b10bea5d1fe0910160405180910390a25050565b60026020528160005260406000208181548110610dbc57600080fd5b6000918252602090912060029091020180546001909101546001600160a01b039091169250905082565b60018181548110610df657600080fd5b6000918252602090912001546001600160a01b0316905081565b6006546000906001600160a01b03163314610e7c5760405162461bcd60e51b815260206004820152602660248201527f4f6e6c792061646d696e2063616e20706572666f726d2074686973206f70657260448201526530ba34b7b71760d11b6064820152608401610376565b6040516bffffffffffffffffffffffff193360601b16602082015242603482015260009060540160408051601f1981840301815291815281516020928301206001600160a01b0380821660009081529384905291909220600201549192501615610f285760405162461bcd60e51b815260206004820152601960248201527f54686973206c616e6420616c7265616479206578697374732e000000000000006044820152606401610376565b6001600160a01b038181166000908152602081815260409091206002810180546001600160a01b031916938916939093179092558551610f6b92918701906110ed565b506001600160a01b0381166000908152602081815260409091208451610f99926001909201918601906110ed565b506001600160a01b03818116600090815260208181526040808320600401805460ff191690556002808352818420825180840184528b8716808252428287019081528354600181810186559489528789209351950290920180546001600160a01b031916949098169390931787555195019490945592825260039052908120805491611024836114d9565b9091555050600180548082019091557fb10e2d527612073b26eecdfd717e6a320cf44b4afac2b0732d9fcbe2b7fa0cf60180546001600160a01b0319166001600160a01b038316908117909155600090815260046020526040812080549161108b836114d9565b9091555050600580549060006110a0836114d9565b9190505550846001600160a01b0316816001600160a01b03167f3f405b948b7115df55f0e424c1b83969949e859b12290b021ca6004f117b09eb60405160405180910390a3949350505050565b8280546110f99061149e565b90600052602060002090601f01602090048101928261111b5760008555611161565b82601f1061113457805160ff1916838001178555611161565b82800160010185558215611161579182015b82811115611161578251825591602001919060010190611146565b5061116d929150611171565b5090565b5b8082111561116d5760008155600101611172565b80356001600160a01b038116811461119d57600080fd5b919050565b600082601f8301126111b357600080fd5b813567ffffffffffffffff808211156111ce576111ce611520565b604051601f8301601f19908116603f011681019082821181831017156111f6576111f6611520565b8160405283815286602085880101111561120f57600080fd5b836020870160208301376000602085830101528094505050505092915050565b60006020828403121561124157600080fd5b61124a82611186565b9392505050565b6000806040838503121561126457600080fd5b61126d83611186565b915061127b60208401611186565b90509250929050565b60008060006060848603121561129957600080fd5b6112a284611186565b9250602084013567ffffffffffffffff808211156112bf57600080fd5b6112cb878388016111a2565b935060408601359150808211156112e157600080fd5b506112ee868287016111a2565b9150509250925092565b6000806040838503121561130b57600080fd5b61131483611186565b946020939093013593505050565b6000806040838503121561133557600080fd5b823567ffffffffffffffff8082111561134d57600080fd5b611359868387016111a2565b9350602085013591508082111561136f57600080fd5b5061137c858286016111a2565b9150509250929050565b60006020828403121561139857600080fd5b5035919050565b6000815180845260005b818110156113c5576020818501810151868301820152016113a9565b818111156113d7576000602083870101525b50601f01601f19169290920160200192915050565b6020808252825182820181905260009190848201906040850190845b8181101561142d5783516001600160a01b031683529284019291840191600101611408565b50909695505050505050565b60a08152600061144c60a083018861139f565b828103602084015261145e818861139f565b6001600160a01b0396909616604084015250506060810192909252151560809091015292915050565b600081611496576114966114f4565b506000190190565b600181811c908216806114b257607f821691505b602082108114156114d357634e487b7160e01b600052602260045260246000fd5b50919050565b60006000198214156114ed576114ed6114f4565b5060010190565b634e487b7160e01b600052601160045260246000fd5b634e487b7160e01b600052603260045260246000fd5b634e487b7160e01b600052604160045260246000fdfea2646970667358221220f6b58b9dca95bf9fef3e150a3c61a6f3dd090285d979cd561876e39b41f2cb3764736f6c63430008070033",
  "immutableReferences": {},
  "source": "// SPDX-License-Identifier: MIT\npragma solidity ^0.8.0;\n\ncontract LandManagement {\n    struct Land {\n        string photoHash;\n        string jsonHash;\n        address owner;\n        uint256 price;\n        bool isForSale;\n    }\n\n    struct LandHistory {\n        address owner;\n        uint256 timestamp;\n    }\n\n    mapping(address => Land) public lands;\n    address[] public landsArray;\n    mapping(address => LandHistory[]) public landHistory;\n    mapping(address => uint256) public ownerLandCount;\n    mapping(address => uint256) public landHistoryCount;\n    uint256 public landCount;\n\n    modifier onlyAdmin() {\n        require(msg.sender == admin, \"Only admin can perform this operation.\");\n        _;\n    }\n\n    address public admin;\n\n    constructor() {\n        admin = msg.sender;\n        landCount = 0;\n    }\n\n    event LandAdded(address indexed landId, address indexed owner);\n    event LandForSale(address indexed landId, uint256 price, address owner);\n    event LandSold(\n        address indexed landId,\n        uint256 price,\n        address indexed oldOwner,\n        address indexed newOwner,\n        uint256 timestamp\n    );\n\n    function addLand(\n        string memory _photoHash,\n        string memory _jsonHash\n    ) public onlyAdmin returns (address) {\n        address landId = address(\n            uint160(\n                uint(keccak256(abi.encodePacked(msg.sender, block.timestamp)))\n            )\n        );\n        require(lands[landId].owner == address(0), \"This land already exists.\");\n        address owner = admin;\n        lands[landId].owner = owner;\n        lands[landId].photoHash = _photoHash;\n        lands[landId].jsonHash = _jsonHash;\n        lands[landId].isForSale = false;\n        landHistory[landId].push(LandHistory(owner, block.timestamp));\n        ownerLandCount[owner]++;\n        landsArray.push(landId);\n        landHistoryCount[landId]++;\n        landCount++;\n        emit LandAdded(landId, owner);\n        return landId;\n    }\n\n    function addLandForAccount(\n        address owner,\n        string memory _photoHash,\n        string memory _jsonHash\n    ) public onlyAdmin returns (address) {\n        address landId = address(\n            uint160(\n                uint(keccak256(abi.encodePacked(msg.sender, block.timestamp)))\n            )\n        );\n        require(lands[landId].owner == address(0), \"This land already exists.\");\n        lands[landId].owner = owner;\n        lands[landId].photoHash = _photoHash;\n        lands[landId].jsonHash = _jsonHash;\n        lands[landId].isForSale = false;\n        landHistory[landId].push(LandHistory(owner, block.timestamp));\n        ownerLandCount[owner]++;\n        landsArray.push(landId);\n        landHistoryCount[landId]++;\n        landCount++;\n        emit LandAdded(landId, owner);\n        return landId;\n    }\n\n    function transferLandOwnership(address landId, address newOwner) public {\n        require(\n            lands[landId].owner == msg.sender,\n            \"You must own this land to transfer it.\"\n        );\n        ownerLandCount[lands[landId].owner]--;\n        lands[landId].owner = newOwner;\n        landHistoryCount[landId]++;\n        ownerLandCount[newOwner]++;\n        landHistory[landId].push(LandHistory(newOwner, block.timestamp));\n    }\n\n    function sellLand(address landId, uint256 price) public {\n        require(\n            msg.sender == lands[landId].owner,\n            \"You must own this land to sell it.\"\n        );\n        require(!lands[landId].isForSale, \"This land is already for sale.\");\n        lands[landId].price = price;\n        lands[landId].isForSale = true;\n        emit LandForSale(landId, price, msg.sender);\n    }\n\n    function buyLand(address landId) public payable {\n        Land storage land = lands[landId];\n        require(land.isForSale, \"This land is not for sale.\");\n        require(msg.value >= land.price, \"Insufficient payment.\");\n        address oldOwner = land.owner;\n        ownerLandCount[oldOwner]--;\n        land.owner = msg.sender;\n        ownerLandCount[msg.sender]++;\n        landHistory[landId].push(LandHistory(msg.sender, block.timestamp));\n        land.isForSale = false;\n        landHistoryCount[landId]++;\n\n        payable(oldOwner).transfer(msg.value);\n        emit LandSold(\n            landId,\n            land.price,\n            oldOwner,\n            msg.sender,\n            block.timestamp\n        );\n    }\n\n    function getLandsIdByAccount(\n        address account\n    ) public view returns (address[] memory) {\n        uint256 count = ownerLandCount[account];\n        address[] memory landsForAccount = new address[](count);\n        for (uint256 i = 0; i < landCount; i++) {\n            if (lands[landsArray[i]].owner == account) {\n                landsForAccount[i] = landsArray[i];\n            }\n        }\n        return landsForAccount;\n    }\n}\n",
  "sourcePath": "/Users/obedovabor/Projects/land-management/contracts/LandManagement.sol",
  "compiler": {
    "name": "solc",
    "version": "0.8.7+commit.e28d00a7.Emscripten.clang"
  },
  "schemaVersion": "3.4.11",
  "updatedAt": "2023-03-27T00:05:33.704Z",
  "networkType": "ethereum",
  "devdoc": {
    "kind": "dev",
    "methods": {},
    "version": 1
  },
  "userdoc": {
    "kind": "user",
    "methods": {},
    "version": 1
  }
}